{
  "contractName": "Voting",
  "abi": [
    {
      "inputs": [
        {
          "internalType": "bytes32[]",
          "name": "candidateNames",
          "type": "bytes32[]"
        }
      ],
      "stateMutability": "nonpayable",
      "type": "constructor"
    },
    {
      "inputs": [
        {
          "internalType": "uint256",
          "name": "",
          "type": "uint256"
        }
      ],
      "name": "candidates",
      "outputs": [
        {
          "internalType": "bytes32",
          "name": "",
          "type": "bytes32"
        }
      ],
      "stateMutability": "view",
      "type": "function"
    },
    {
      "inputs": [
        {
          "internalType": "address",
          "name": "",
          "type": "address"
        }
      ],
      "name": "hasVoted",
      "outputs": [
        {
          "internalType": "bool",
          "name": "",
          "type": "bool"
        }
      ],
      "stateMutability": "view",
      "type": "function"
    },
    {
      "inputs": [
        {
          "internalType": "bytes32",
          "name": "",
          "type": "bytes32"
        }
      ],
      "name": "votesReceived",
      "outputs": [
        {
          "internalType": "uint256",
          "name": "",
          "type": "uint256"
        }
      ],
      "stateMutability": "view",
      "type": "function"
    },
    {
      "inputs": [
        {
          "internalType": "bytes32",
          "name": "candidate",
          "type": "bytes32"
        }
      ],
      "name": "voteForCandidate",
      "outputs": [],
      "stateMutability": "nonpayable",
      "type": "function"
    },
    {
      "inputs": [
        {
          "internalType": "bytes32",
          "name": "candidate",
          "type": "bytes32"
        }
      ],
      "name": "validCandidate",
      "outputs": [
        {
          "internalType": "bool",
          "name": "",
          "type": "bool"
        }
      ],
      "stateMutability": "view",
      "type": "function"
    }
  ],
  "bytecode": "0x608060405234801562000010575f80fd5b50604051620009b9380380620009b9833981810160405281019062000036919062000278565b80600290805190602001906200004e92919062000056565b5050620002c7565b828054828255905f5260205f2090810192821562000093579160200282015b828111156200009257825182559160200191906001019062000075565b5b509050620000a29190620000a6565b5090565b5b80821115620000bf575f815f905550600101620000a7565b5090565b5f604051905090565b5f80fd5b5f80fd5b5f80fd5b5f601f19601f8301169050919050565b7f4e487b71000000000000000000000000000000000000000000000000000000005f52604160045260245ffd5b6200012082620000d8565b810181811067ffffffffffffffff82111715620001425762000141620000e8565b5b80604052505050565b5f62000156620000c3565b905062000164828262000115565b919050565b5f67ffffffffffffffff821115620001865762000185620000e8565b5b602082029050602081019050919050565b5f80fd5b5f819050919050565b620001af816200019b565b8114620001ba575f80fd5b50565b5f81519050620001cd81620001a4565b92915050565b5f620001e9620001e38462000169565b6200014b565b905080838252602082019050602084028301858111156200020f576200020e62000197565b5b835b818110156200023c5780620002278882620001bd565b84526020840193505060208101905062000211565b5050509392505050565b5f82601f8301126200025d576200025c620000d4565b5b81516200026f848260208601620001d3565b91505092915050565b5f6020828403121562000290576200028f620000cc565b5b5f82015167ffffffffffffffff811115620002b057620002af620000d0565b5b620002be8482850162000246565b91505092915050565b6106e480620002d55f395ff3fe608060405234801561000f575f80fd5b5060043610610055575f3560e01c806309eef43e146100595780633477ee2e14610089578063392e6678146100b95780637021939f146100e9578063cc9ab26714610119575b5f80fd5b610073600480360381019061006e9190610390565b610135565b60405161008091906103d5565b60405180910390f35b6100a3600480360381019061009e9190610421565b610151565b6040516100b09190610464565b60405180910390f35b6100d360048036038101906100ce91906104a7565b610171565b6040516100e091906103d5565b60405180910390f35b61010360048036038101906100fe91906104a7565b6101ce565b60405161011091906104e1565b60405180910390f35b610133600480360381019061012e91906104a7565b6101e3565b005b5f602052805f5260405f205f915054906101000a900460ff1681565b60028181548110610160575f80fd5b905f5260205f20015f915090505481565b5f805f90505b6002805490508110156101c4578260028281548110610199576101986104fa565b5b905f5260205f200154036101b15760019150506101c9565b80806101bc90610554565b915050610177565b505f90505b919050565b6001602052805f5260405f205f915090505481565b5f803373ffffffffffffffffffffffffffffffffffffffff1673ffffffffffffffffffffffffffffffffffffffff1681526020019081526020015f205f9054906101000a900460ff161561026c576040517f08c379a0000000000000000000000000000000000000000000000000000000008152600401610263906105f5565b60405180910390fd5b61027581610171565b6102b4576040517f08c379a00000000000000000000000000000000000000000000000000000000081526004016102ab9061065d565b60405180910390fd5b60015f803373ffffffffffffffffffffffffffffffffffffffff1673ffffffffffffffffffffffffffffffffffffffff1681526020019081526020015f205f6101000a81548160ff0219169083151502179055506001805f8381526020019081526020015f205f828254610328919061067b565b9250508190555050565b5f80fd5b5f73ffffffffffffffffffffffffffffffffffffffff82169050919050565b5f61035f82610336565b9050919050565b61036f81610355565b8114610379575f80fd5b50565b5f8135905061038a81610366565b92915050565b5f602082840312156103a5576103a4610332565b5b5f6103b28482850161037c565b91505092915050565b5f8115159050919050565b6103cf816103bb565b82525050565b5f6020820190506103e85f8301846103c6565b92915050565b5f819050919050565b610400816103ee565b811461040a575f80fd5b50565b5f8135905061041b816103f7565b92915050565b5f6020828403121561043657610435610332565b5b5f6104438482850161040d565b91505092915050565b5f819050919050565b61045e8161044c565b82525050565b5f6020820190506104775f830184610455565b92915050565b6104868161044c565b8114610490575f80fd5b50565b5f813590506104a18161047d565b92915050565b5f602082840312156104bc576104bb610332565b5b5f6104c984828501610493565b91505092915050565b6104db816103ee565b82525050565b5f6020820190506104f45f8301846104d2565b92915050565b7f4e487b71000000000000000000000000000000000000000000000000000000005f52603260045260245ffd5b7f4e487b71000000000000000000000000000000000000000000000000000000005f52601160045260245ffd5b5f61055e826103ee565b91507fffffffffffffffffffffffffffffffffffffffffffffffffffffffffffffffff82036105905761058f610527565b5b600182019050919050565b5f82825260208201905092915050565b7f596f75206861766520616c726561647920766f7465642e0000000000000000005f82015250565b5f6105df60178361059b565b91506105ea826105ab565b602082019050919050565b5f6020820190508181035f83015261060c816105d3565b9050919050565b7f43616e64696461746520646f6573206e6f742065786973742e000000000000005f82015250565b5f61064760198361059b565b915061065282610613565b602082019050919050565b5f6020820190508181035f8301526106748161063b565b9050919050565b5f610685826103ee565b9150610690836103ee565b92508282019050808211156106a8576106a7610527565b5b9291505056fea26469706673582212200316557e25ab18fb4c693a990404289235a7dd09e7395882c67ef8b35c55f7d364736f6c63430008150033",
  "immutableReferences": {},
  "source": "// SPDX-License-Identifier: UNKNOWN \r\npragma solidity ^0.8.21;\r\n\r\ncontract Voting {\r\n// This mapping keeps track of each addresss voting status\r\nmapping(address => bool) public hasVoted;\r\n\r\n// This mapping stores the votes each candidate has received\r\nmapping(bytes32 => uint) public votesReceived;\r\n\r\n// An array of candidates eligible for votes\r\nbytes32[] public candidates;\r\n\r\nconstructor(bytes32[] memory candidateNames) public {\r\ncandidates = candidateNames;\r\n}\r\n\r\nfunction voteForCandidate(bytes32 candidate) public {\r\nrequire(!hasVoted[msg.sender], \"You have already voted.\");\r\nrequire(validCandidate(candidate), \"Candidate does not exist.\");\r\n\r\nhasVoted[msg.sender] = true;\r\nvotesReceived[candidate] += 1;\r\n}\r\n\r\nfunction validCandidate(bytes32 candidate) view public returns (bool) {\r\nfor (uint i = 0; i < candidates.length; i++) {\r\nif (candidates[i] == candidate) {\r\nreturn true;\r\n}\r\n}\r\nreturn false;\r\n}\r\n}\r\n// Explanation: This contract sets up a simple voting system where each Ethereum address can only vote once for a pre-defined list of candidates. The votes are tallied in a mapping, and basic checks ensure each address votes only once and for valid candidates.",
  "sourcePath": "C:\\Users\\pgcho\\OneDrive\\Desktop\\clonedrepos\\workathon\\VotingDApp\\contracts\\Voting.sol",
  "compiler": {
    "name": "solc",
    "version": "0.8.21+commit.d9974bed.Emscripten.clang"
  },
  "schemaVersion": "3.4.16",
  "updatedAt": "2024-08-09T07:47:32.167Z",
  "devdoc": {
    "kind": "dev",
    "methods": {},
    "version": 1
  },
  "userdoc": {
    "kind": "user",
    "methods": {},
    "version": 1
  }
}